:10000000B2C000000C94270FCAC00000C8C0000096
:10001000C6C00000C4C00000C2C00000C0C00000D4
:10002000BEC000000C94F60EBAC000000C94F5148B
:100030000C949F15B4C000000C945B0F0C94D20F6D
:10004000AEC00000ACC000000C94A90FA8C0000016
:10005000A6C00000A4C00000A2C00000A0C0000014
:100060009EC000009CC000009AC0000098C0000024
:1000700096C00000322E312E300031332E322E3019
:10008000003131636533343335004803780075003F
:100090006D003100350034003100200066006C0036
:1000A0006F00700070007900200061006400610042
:1000B0007000740065007200200028005A004F0094
:1000C0004F004D0046004C004F00500050005900BA
:1000D000290000003A034E00610074006500200012
:1000E0004C006100770073006F006E00200061001B
:1000F0006E00640020004F00700065006E00430039
:1001000042004D0020007400650061006D00000099
:1001100004030904090220000101008032090400DF
:100120000002FF000000070583022000000705040D
:100130000220000012011001FF000008D016040583
:1001400008020102030100080109808881894048F2
:100150004149C0C8C1C910181119909891995058B7
:100160005159D0D8D1D911241FBECFEFD4E0DEBF72
:10017000CDBF11E0A0E0B1E0E0ECF4E302C00590F7
:100180000D92A833B107D9F721E0A8E3B1E001C08F
:100190001D92A637B207E1F7E9D00C942A1A30CFA6
:1001A00080913B01089581E064D610923B0181E08B
:1001B00080933801089508950F931F93CF93DF9391
:1001C000CDB7DEB728970FB6F894DEBF0FBECDBF10
:1001D00080916D018076803281F48E010F5F1F4F18
:1001E00088E0F80111928A95E9F7B80180916E01D3
:1001F0008FD28F3F69F484E03CD628960FB6F894EE
:10020000DEBF0FBECDBFDF91CF911F910F9108953B
:100210009091E800977F9093E80090916D0197FF8F
:1002200010C0682F880F770BC8010E946A13809155
:10023000E800982F9B7F9093E8008F778093E800E9
:10024000DCCF8091E80080FFFCCF8091E800982F00
:100250009E7FF1CFE9EEF0E08081877091E090938E
:100260003B0194E09083ABEEB0E09C9190629C9354
:1002700093E090839C9190629C9380830895A895CD
:1002800080913B01811105C00FD6811103D681E019
:10029000089580E008952091E9002770E0E0F1E002
:1002A00041E050E08191811103C02093E90008955D
:1002B0008093E900BA0102C0660F771F8A95E2F7C2
:1002C0006093EA001092EA008091EB0088608093CE
:1002D000EB008091EB0085FFE5CF8091EB00806122
:1002E0008093EB00DFCFD7DF46E261E883E00E9436
:1002F000411246E260E884E00E94411282E0B9D5F2
:1003000081E080933901089524E02093E90070E0B2
:1003100040ED50E00E942B1380913B0181110BC0F6
:100320008091E800982F9B7F9093E8008F778093CF
:10033000E80081E0089580E0089523E02093E9003B
:1003400070E040ED50E00E94EC1280913B01811181
:100350000BC08091E800982F9E7F9093E8008F77E4
:100360008093E80081E0089580E0089500D000D0F7
:1003700000D00F92CDB7DEB780E890E00FB6F894CA
:1003800080936100909361000FBE88E19EE00FB6FC
:10039000F894A895809360000FBE909360000E942F
:1003A000C714809138018115D1F036D580E061D530
:1003B000B3D0CE0101968E010B5F1F4F23E0B22E0A
:1003C000F82EE92ED02EC12EA895809139018111E9
:1003D00008C0809138018111F7CFA895FACFA89570
:1003E000E0CF80916C01843071F48093E9008091BA
:1003F000E80085FF08C064E08F2D9E2D85DF811108
:1004000008C084E036D53BDF8111DFCF10923B017D
:10041000DCCFF8018B2D11928A95E9F76D2D7C2D9B
:100420008F2D9E2D1ED2181634F48D8363E08D2DF2
:100430009C2D83DFE8CF811531F384E01AD58091BC
:10044000EB0080628093EB00DECF8091450181114B
:1004500002C00C94451988E80895809145018111E6
:1004600002C00C94961988E8089590914501911561
:1004700079F0E0913F01F09140019F012F5F3F4FE4
:100480003093400120933F01808380E090E0089505
:1004900090913C01943091F49DEF980F933040F08F
:1004A0008B3031F09DEE980F923010F0863119F4B8
:1004B00081E08093450110923C010AC0E92FF0E0F1
:1004C000EC5CFE4F2081821306C09F5F90933C013D
:1004D00081E090E008958111EECF81E080933C01AE
:1004E000F7CFCF93C82FC1DF892B21F08C2FCF916D
:1004F0000C946D19CF910895CF93C82FB6DF892B37
:1005000021F08C2FCF910C94B319CF910895909333
:100510004901809348010895CF93DF9300D0CDB770
:10052000DEB71A82198210924601E3D7029781F44E
:10053000CE010196FBD780914601806280934601EF
:1005400029813A81C9010F900F90DF91CF910895D1
:100550002FD79C019A838983892B31F080914601A2
:10056000806180934601EECF66D40E94E5179C011E
:10057000E9CF23E0613019F061110DC024E0209330
:10058000E9008093480190934901609303018091B1
:10059000E80085FFFCCF0895809103018130D9F4F4
:1005A0008091F200811106C080914801909149012B
:1005B000892B49F08091E800982F9E7F9093E80066
:1005C0008F778093E8008FE08093030110924901B8
:1005D0001092480108958111F6CF809148019091C1
:1005E0004901009721F060ED70E00E94B8128091FF
:1005F000E80085FDE8CF8091E800982F9B7FDECF53
:100600008093F10080914801909149010197909366
:100610004901809348018091E80085FD11C08091D7
:10062000E800982F9E7F9093E8008F778093E800F2
:100630008091E80085FD04C080913B018115C1F3E4
:1006400080913B01819508950F931F93CF93DF9382
:100650008C01EB0161E0CE018CDF209731F0F801D5
:100660000995CEDF21978115C1F3DF91CF911F91BD
:100670000F9192CFFC018091E80085FD11C080911F
:10068000E800982F9B7F9093E8008F778093E80095
:100690008091E80085FD04C080913B018115C1F384
:1006A00080913B0181110EC08091F1008083809187
:1006B0004801909149010197909349018093480125
:1006C00080E008958FEF0895EF92FF920F931F93AC
:1006D000CF93DF930F92CDB7DEB77C018B0160E043
:1006E000C80147DF0115110539F0CE010196C2DFBF
:1006F00001501109811541F00F90DF91CF911F91A9
:100700000F91FF90EF9048CF8981F7010995EACFCB
:10071000CF93DF93EB01893008F06CC0E82FF0E055
:10072000E45DF54E0C940D1A8091E800877F80936C
:10073000E8008091E80080FFFCCF8091E800982FCE
:100740009E7F9093E8008F778093E8002FEF81EEF3
:1007500094E0215080409040E1F700C000000FB6C7
:10076000F894A89580916000886180936000109251
:1007700060000FBE0E94CD14F89410928100109278
:100780008900109288000C94001C80E002C018823E
:1007900081E0DF91CF91089581E491E09093400151
:1007A00080933F0183E065D380913D0190913E01AC
:1007B000892BC9F088E088838BE189838091460189
:1007C0008A8390914701911117C0809147018068F9
:1007D0008093470180913901811103C08A81826031
:1007E0008A8388E0D6CF98DE90933E0180933D01C6
:1007F000892B01F78FEFCDCF81608A8381E08093D1
:100800004701E0913D01F0913E010190F081E02D22
:1008100080E009951FDDD9CF1092470182E029D3EE
:10082000B4CF8091470180FDB0CFE0913D01F091C0
:100830003E010190F081E02D80E00995A6CF48E0CF
:1008400050E061E870E0CE010E94131ACACF48E080
:1008500050E06AE770E0F7CF48E050E064E770E00E
:10086000F2CFBF92CF92DF92EF92FF920F931F933E
:10087000CF93DF9300D0CDB7DEB76C017B018091C1
:1008800047018E7F80934701D601BC9012960D914F
:100890001C9183E0EED2B2E2BB1670F4E8E0BE1623
:1008A00010F48FEF9AC0E8EFEB0DEA31D0F7F0E0EB
:1008B000EB5CF54E0C940D1A8EEB8B0D883088F79F
:1008C000EDEBEB0DE73008F045C2F0E0E15BF54EF3
:1008D0000C940D1A8091460184FD75C0D6011196C5
:1008E0008C91807F803609F49FC0B8F4803309F47E
:1008F00080C050F4803109F466C0803291F6B801AE
:1009000088E298E1A1DE68C0803409F476C08035C1
:1009100041F6B8018EE299E1F5CF803909F4B9C00A
:1009200008F044C0803709F4B0C0803809F0B9CF6E
:100930000115110509F450C01092450161E0C8018C
:1009400018DE47988BB1867E8BB98FE39CE90197BF
:10095000F1F700C000000E949619589AE12CF12C82
:10096000680192E0C91AD1089B2D80E04D99FECF15
:100970004D9BFECFA2E0AA95F1F729B122FB2227D9
:1009800020F9880F822B9A9589F7EC14FD0409F45D
:10099000589836DE811106C0BFEFEB1AFB0A0E1520
:1009A0001F0511F7F9DD0E94961916C0803A09F467
:1009B00074C0803B09F075CF3BD6D70112969C934B
:1009C0008E93119760C1E0913D01F0913E0104804A
:1009D000F581E02DC801099580E00F900F90DF911F
:1009E000CF911F910F91FF90EF90DF90CF90BF902C
:1009F0000895B80189E998E185CF61E0C801B9DDC2
:100A00000115110541F0CE0101960E94F918898166
:100A1000F7DD811511F0C0DDDFCF8A81F1DD8111B5
:100A2000FACF02501109ECCF6801E894D7F8C1144D
:100A3000D10491F21092450161E0C6019ADD5B9804
:100A4000EFE3FCE93197F1F700C000000E9445197F
:100A5000E12CF12C6E2D6170CE0101960E945E1981
:100A600087FDBACF8981CCDD81110BC017FF03C090
:100A70008981853531F0FFEFEF1AFF0ACE14DF04CC
:100A800049F78ADD0E944519A7CFB80185E292E0B7
:100A900039CFB8018DE292E035CF0E947710F7018F
:100AA00092838183F0C0F60161818091460184FDCB
:100AB0005BC0862F807F803609F47DC0C8F4803308
:100AC00009F45DC058F4803109F44EC0803209F059
:100AD000E8CEB80180EF97E1F7DD7ECF803409F4EE
:100AE00052C0803509F0DDCEB80187E199E1F4CF3D
:100AF000803909F4B6C080F5803709F499C0803890
:100B000009F0CFCE0115110509F466CF1092450109
:100B100060E0C8012EDD47988BB1867E8BB981E4F9
:100B2000E82E81E0F82E80913F0190914001E81677
:100B3000F90609F081C081E491E09093400180932F
:100B40003F01E12CF12CCE01019694DD811509F4D1
:100B500079C00E9496195FCF803A09F486C0803B25
:100B600009F09FCE30D529CF6F70E0913D01F09113
:100B70003E010280F381E02DC80109951ECFB80126
:100B800087E698E1A9CF60E0C801F3DC0115110503
:100B900009F441CFCE0101966DDD81113CCFCE012C
:100BA000029668DD811137CFCE0101960E94D318DD
:100BB00002501109EBCF0115110509F40DCF109268
:100BC000450160E0C801D5DC5B9891E4E92E91E035
:100BD000F92E80913F0190914001E816F90611F538
:100BE00081E491E09093400180933F01E12CF12C4E
:100BF000CE0101963FDD6E2D617081110BC08981A0
:100C00000E94891987FDE8CEFFEFEF1AFF0A0E1543
:100C10001F0571F76E2D617080E00E9489190E9496
:100C20004519F9CEF70181917F010E946D19D1CF4D
:100C3000B80181E792E050CFD7018D917D010E94EC
:100C4000B31971CF6E2D617089810E94D7198111FE
:100C5000C3CEBFEFEB1AFB0A0E151F0509F073CFC9
:100C600078CFB8018CE792E037CF0E94B31017CF4E
:100C700020913A0181E090E0211111CF80E090E0D5
:100C80000ECF10923A0182E0A8CEE0913D01F091A2
:100C90003E010680F781E02DD60112966C911297E5
:100CA00011968C910995811509F496CEE0913D013C
:100CB000F0913E010084F185E02D099590E0EFCEA2
:100CC000E0913D01F0913E010284F385E02DD601D3
:100CD00012966C91129711968C910995D4CF8091B0
:100CE000460184FDDECD14B815B883B1E7CF8091FD
:100CF000460184FDD6CDD60111968C919FEF94B913
:100D000085B9C1CF8091460184FDCBCD9EDBD6CF86
:100D10008091460184FDC5CDD60111968C91E1DB11
:100D2000B2CF8091460184FDBCCD97DBC7CF8091C7
:100D3000460184FDB6CDD60111968C91DDDBA3CFA3
:100D40009CD4ADCE04D539CE86D5A9CE9BD535CE93
:100D5000C3D5A5CE0AD431CE1FD4A1CE49D32DCE32
:100D60000F931F93CF93DF93BC01EA018901F9012F
:100D70001082872F99278230910509F448C083306B
:100D8000910569F00197F1F482E190E024E331E00C
:100D900039832883DF91CF911F910F910895CB0163
:100DA00099276230A1F08330910550F4E4EDF0E032
:100DB000892B11F4E0E1F1E0849190E09F01E8CF0C
:100DC000039741F080E090E020E030E0E1CFEAE8F6
:100DD000F0E0F2CF80E090E00E94221A809590E04F
:100DE000ECE0F1E02AE030E0009749F48091040162
:100DF00090E022E0F801208324E031E0C9CFB9017E
:100E00000E94F919C09692938293CB01EDCF80E2B4
:100E100090E024E131E0BCCF18B884E087B98AE1E2
:100E200096E09093890080938800E1E8F0E080816B
:100E30008D608083089518B81BB884E887B989E568
:100E40008AB915B814B8089529B149B189B136B134
:100E500096B1880F8870330F3078832B26952071D8
:100E6000822B41FB222720F9822B96959074892BA7
:100E7000089580934A01833059F028F4811541F098
:100E8000823021F00895843019F008954298089531
:100E9000429A089580914A018350823020F488B1AB
:100EA00094E0892788B90895B19B03C0B19A81E085
:100EB000089580E0089514B88FEF85B947983F9A58
:100EC0003E98469A3C98449A3D98459A5E98569A20
:100ED00057985F9A5C98549A55985D9A3A98429AB6
:100EE0005B98539A52985A9A5898509A5198599A8E
:100EF0001092520110924D0110924C018FEF9FEF12
:100F000090934F0180934E01089589B182FB882709
:100F100080F991E08927499B8260369B84604F9BD2
:100F20008860349B8061359B8062089581E00895DC
:100F3000089585E38A95F1F7000080914B018F5F5A
:100F4000843660F480934B01A89520915001309134
:100F5000510181E0232B09F080E0089510924B01AC
:100F60008091500190915101892B71F38091500132
:100F70009091510101979093510180935001E4CFDA
:100F8000CF92DF92EF92FF920F931F93CF93DF9355
:100F90008C0161E0EEDAC0E0D0E091E4E92EF12CC2
:100FA00080913A01811569F0F7DAC0E0D0E0CE0116
:100FB000DF91CF911F910F91FF90EF90DF90CF9035
:100FC000089585E1C82ED12C809152018D7F8093A8
:100FD000520180913A01811569F080E090915201AF
:100FE00091FF37C081E0C81AD108F1F248D98111C8
:100FF000EBCFDACF5B9A5898F0925101E092500112
:10100000349B0BC096DF8115D9F380915201826029
:10101000809352015B9A589AE0CF85E08A95F1F768
:10102000000083B18095359908C090915201906479
:101030009093520191E090933A01589A95E09A95D5
:10104000F1F700005B98349B02C05B9AC7CFA8956C
:10105000FACFD6DA81110AC02196A8950C171D0780
:1010600029F080913A01811509F49ACF95DA9FCF42
:101070003C98449A499B0AC04A9B08C080915201FF
:1010800080688093520181E00895A895499BFDCF27
:1010900014B8982F909595B984B98AE18A95F1F79B
:1010A00000C044983C9A81E490E090935101809371
:1010B00050014A9B02C080E009C03BDF8115C9F3A3
:1010C0008091520181608093520181E03C98449A62
:1010D00014B89FEF95B90895CF93C82F58985B988F
:1010E00080914E0190914F0197FD20C045983D9A07
:1010F00080914E01BDDF3D98459A87E691E00197CA
:10110000F1F700C000008FEF9FEF90934F018093A5
:101110004E01479A87E691E00197F1F700C0000081
:101120008C2FA6DF811599F0479810C08FEF90E0C3
:1011300090935101809350013499EBCFFADE8115E1
:10114000D9F38091520184608093520181E0CF9164
:1011500008958EDF811103C091E090934D0147986F
:1011600008950F931F93CF93C82FA5DE5E9A82E355
:1011700090E09093510180935001DBDE8115E9F3FB
:101180005E980CE41DE185E38A95F1F70000499B28
:1011900002C04A990FC087EF92E00197F1F700C0B3
:1011A00000006DD88115C1F10150104061F7C111E7
:1011B000EACF32C0479A95E39A95F1F70000499B30
:1011C00008C04A9B06C047988FEC92E00197F1F760
:1011D000E6CF479887EC90E00197F1F700C0000058
:1011E000499B02C04A990EC08FE891E00197F1F740
:1011F00000C00000499B02C04A9904C090EA9A9539
:10120000F1F7CFCF87E092E00197F1F700C000003F
:10121000499BC7CF4A9BC5CFCF911F910F9108958E
:101220008FE35ADF479887E691E00197F1F700C016
:10123000000010924D010895DF92EF92FF920F93FC
:101240001F93CF93DF9300D00F92CDB7DEB78C0101
:10125000D62E10923A011092520160E08AD9D1FE46
:1012600086C00115110581F4E12CF12CE114F10483
:1012700041F0CE010396FED9811509F483C000E048
:1012800010E08AD9C80107C0CE010296F3D98115B2
:1012900069F080E090E00F900F900F90DF91CF9178
:1012A0001F910F91FF90EF90DF900895780181E0FA
:1012B000E81AF1088A81E114F10421F0982F9F7156
:1012C0009F3191F486FF0BC08FE506DF479887E6D4
:1012D00091E00197F1F700C0000010924C018A8163
:1012E00085FFC4CF9DDFC2CFCE010196C3D9811146
:1012F000D0CFD0FE14C0F9808A818F718064ECDE7B
:101300008111B2CF8F2D8F708066B2DE811105C042
:10131000589A5B9A81E080934C014798A5CF780159
:1013200092E0E91AF10883E0E816F10408F09ECF94
:10133000D9808D2D807F803E79F0803FD1F080363E
:1013400009F094CF8A818F718062C6DE81118ECFC1
:101350008D2D8F71806614C08A818F718062BCDE92
:101360008111C0CF8D2D8F70806EF3DEBBCF7801E1
:101370007DCF8A818F718062AFDE811177CF8D2D15
:10138000E8DE74CFDB8080914E0190914F0197FF92
:101390000BC08D2D90E090934F0180934E0191E012
:1013A000E91AF108A89562CF63DE811591F367CF42
:1013B00082DD8FE891E00197F1F700C000004498CA
:1013C0003C9A45983D9A3C9844983D9845988FE8BA
:1013D00091E00197F1F700C00000349B06C0359BF7
:1013E00004C069DD8EE091E0089580E090E008950A
:1013F00081E090E0089580916801806880936801A1
:101400000895489904C08091680187FF04C0F3DF04
:101410008EEF90E0089581E090E00895809168015A
:1014200080FD07C08091680181FD06C08DEF90E0CE
:10143000089584E090E0089585E090E0089580911B
:1014400068018E7F80936801809168018D7F809311
:10145000680108958091680180618093680182E04D
:1014600084B98DEF85B917B88FEF88B91AB88BB9E1
:101470000895109280008AE196E09093890080930D
:1014800088008DE0809381000895E8E6F0E0808197
:101490008E7F8083EFE6F0E080818C7D8083EBE6B9
:1014A000F0E080818E7F8083E8988FEF86BB8BBBD6
:1014B00081E08CBB089585B78F7E85BF5098519A87
:1014C000589A59980895CF93DF93C82FDFB7F894AF
:1014D000B6DFC23039F08091680180618093680185
:1014E000219A29983E98C5DFD0DFDFBFDF91CF91E9
:1014F00008950F931F93CF93DF93CFB7F8941AB14A
:101500000BB1D5B710926801D6DF7BDF0BB91AB9E2
:10151000D5BFCFBF019739F482E090E0DF91CF9142
:101520001F910F91089583E090E0F8CF1F93CF9320
:10153000DF93EC011FB7F894809168018064809379
:101540006801809168018F7D8093680183DFB3DF3C
:1015500090DF9BDF209721F08AE191E099838883D7
:101560001FBFDF91CF911F910895CF93DF9349DF84
:10157000EC018E3F910531F481E0A5DFCE01DF91D2
:10158000CF91089580916801806180936801219ACC
:10159000299AC8E0D0E0F2CFCF93DF9332DFEC019D
:1015A0008E3F910531F481E08EDFCE01DF91CF9146
:1015B000089580916801806180936801219A29983B
:1015C000C9E0D0E0F2CF1F93CF93DF930F92CDB756
:1015D000DEB71FB7F894A89560E08FEF9FEF0E94E9
:1015E000B9028FE39CE90197F1F700C00000CE013A
:1015F000019640D8811551F00E94CC021FBF88EFA0
:1016000090E00F90DF91CF911F9108958091680134
:101610008F79809368018091680199819076892BF8
:10162000809368010E94CC021FBF8CE090E0E9CF5C
:10163000CF93DF93D0916801CFB7F894A89561E07C
:101640008FEF9FEF0E94B9028FE39CE90197F1F7BA
:1016500000C000008D2F0E940003811541F00E9400
:10166000CC02CFBF89EF90E0DF91CF9108950E9427
:10167000CC02CFBF8DE090E0F7CFCF93DF93DFB701
:10168000F894A89510925501C9DE059711F482E0EF
:101690001ADF81E090E09093270180932601DADE43
:1016A00080916400877F8093640010928000809115
:1016B0008100877E80938100809181008068809383
:1016C00081008091680186FF30C0809181008F7B0E
:1016D000809381008091810081608093810080915E
:1016E0008100897F80938100C1E0C0936F003F98A3
:1016F000479A2098289A85B78F7E85BFC093680047
:1017000010926B00D8DEE898809169008360809326
:1017100069008FEF86BB8BBBCCBB27DF8E3F91056B
:1017200041F4DFBFDF91CF91089580918100806403
:10173000CFCF809168018B7F809368018091680191
:10174000816080936801DFBF84E090E0EBCFCF93AE
:10175000DF93CFB7F894A895109255015FDE0497F8
:1017600011F482E0B0DE81E090E090932701809355
:10177000260170DE80916400877F809364008091F1
:10178000680185FF47C080918000806C8093800055
:1017900081E0809353018091820080688093820071
:1017A00010925401809180008C7F8093800088E0AB
:1017B00080938100809181008F7E80938100809151
:1017C000810081608093810080918100897F809376
:1017D000810082E080936F003E9A2098289A85B716
:1017E0008F7E85BFD1E0D093680010926B0063DEDE
:1017F000E898809169008360809369008FEF86BBD1
:101800008BBBDCBBB2DE8E3F910589F4CFBFDF918D
:10181000CF910895809180008068809380008091AE
:1018200080008F7B8093800010925301B4CF809111
:101830006801877F8093680180E89BEB9093890023
:101840008093880080916801826080936801CFBF97
:1018500085E090E0DCCFCF93DF93E0DDEC018D3FBE
:10186000910539F0CEDDEC018E3F910531F481E038
:101870002ADECE01DF91CF910895C3B1C170CA5F56
:10188000D0E0F7CFCF93DF93DFB7C8DD8D3F910571
:10189000C9F07894C0E0B5DD8E3F910531F0C111FB
:1018A00004C080915501811581F0DFBF8091550101
:1018B00081110FC087E090E0C11104C081E003DE18
:1018C0008EEF90E0DF91CF910895C3B1C170A895DC
:1018D000E2CF87EF90E0F6CFCF93DF93DFB79EDDC7
:1018E0008D3F9105C9F07894C1E08BDD8E3F910565
:1018F00031F0C11521F0C0915501C11581F0DFBF54
:101900008091550181110FC086E090E0C11521F052
:1019100081E0D9DD8EEF90E0DF91CF910895C3B1E2
:10192000C170A895E2CF87EF90E0F6CF35DEEFE605
:10193000F0E080818E7D8083EBE6F0E080818E7F19
:101940008083E8988FEF86BB8BBB81E08CBB809156
:1019500068018B7F809368010895CF93DF935EDDEC
:10196000CDEFD0E0049739F44CDDEC018E3F9105CA
:1019700031F481E0A8DDCE01DF91CF91089521E01F
:101980002CBBE89A1092850010928400109264019A
:101990001092650110926601109267011092610128
:1019A000109260019FEF96BB8091680184608093E4
:1019B000680120936B0080916F00806280936F00BC
:1019C0009BBBB59A48DF069721F0B0DFCBEFD0E0A4
:1019D000D2CFC0912601D0912701CDCFDDDD10926D
:1019E0005401EBE6F0E080818E7F8083E8988FEFF2
:1019F00086BB8BBB81E08CBB80E09DE79093890028
:101A00008093880080916801877F809368010895A2
:101A1000CF93CFB7F89481E080935501809168010E
:101A200082FD84DF8091680183FDD8DF13DD81E0D2
:101A30004ADD41DD87EF90E09093270180932601F6
:101A4000CFBFCF9108958091640190916501A091DD
:101A50006601B091670180935C0190935D01A09352
:101A60005E01B0935F0180916201909163012091CA
:101A7000600130916101821B930B90935B01809315
:101A80005A0120916201309163018091600190912F
:101A900061012817390798F480915C0190915D01EC
:101AA000A0915E01B0915F010197A109B1098093F6
:101AB0005C0190935D01A0935E01B0935F01109271
:101AC0006401109265011092660110926701809185
:101AD0006201909163019093610180936001809114
:101AE0005C0190915D01A0915E01B0915F01892B35
:101AF0008A2B8B2B31F480915A0190915B0197FFD7
:101B00002EC060915C0170915D0180915E019091A9
:101B10005F0180680E940003811541F007DF89EFB3
:101B200090E09093270180932601089580915C01B5
:101B300090915D01A0915E01B0915F01892F0E949B
:101B400000038111EBCF80915C0190915D01A09128
:101B50005E01B0915F010E9400038111DFCF80918F
:101B60005A0190915B01892F0E9400038111D6CF09
:101B700080915A0190915B010E9400038111CECFA8
:101B80000895CF93DF9300D0CDB7DEB7CE01029694
:101B90000E943A03811561F021DF88EF90E0909375
:101BA0002701809326010F900F90DF91CF91089528
:101BB000CE0101960E943A038111EECF8A812981DC
:101BC00087FD2DC010925C0110925D0110925E01A4
:101BD00010925F0190E090935B0180935A01809195
:101BE0005A0190915B01982F8827820F911D909345
:101BF0005B0180935A018091560190915701A09109
:101C00005801B09159010297A109B1098093560179
:101C100090935701A0935801B0935901C4CF8F7787
:101C200090E0A0E0B0E080935C0190935D01A09310
:101C30005E01B0935F0180915C0190915D01A09184
:101C40005E01B0915F01BA2FA92F982F8827820FCC
:101C5000911DA11DB11D80935C0190935D01A09326
:101C60005E01B0935F01CE0102960E943A0381119A
:101C700093CF80915C0190915D01A0915E01B09144
:101C80005F01BA2FA92F982F88272A81820F911DD3
:101C9000A11DB11D80935C0190935D01A0935E0135
:101CA000B0935F01CE0102960E943A03811174CF76
:101CB0008A8190E090935B0180935A01CE01029655
:101CC0000E943A03811168CF80915A0190915B0183
:101CD000982F88272A81820F911D90935B01809312
:101CE0005A018091560190915701A0915801B091ED
:101CF00059010597A109B10989CFCF93DF938EDBF5
:101D0000CDEFD0E0059739F47CDBEC018E3F9105F7
:101D100031F481E0D8DBCE01DF91CF91089580913D
:101D20006801886080936801C1E0CCBBE89AC093E9
:101D30006B0027DF109285001092840080915C0177
:101D400090915D01A0915E01B0915F01892B8A2B7A
:101D50008B2B61F580915A0190915B0190938900E2
:101D600080938800C093540180915301811111C068
:101D700080918000806C80938000C09353018FEF2E
:101D800086BB8BBB68DD069761F128DECCEFD0E027
:101D9000C2CF809180008068809380008091800015
:101DA0008F7B8093800010925301E9CF10925401F1
:101DB00080915A0190915B0197FD10C080915A016A
:101DC00090915B01905890935B0180935A0180E061
:101DD00090E89093890080938800D1CF8FEF9FEF98
:101DE000F8CFC0912601D091270195CF1F920F9275
:101DF0000FB60F9211242F933F934F935F936F93DE
:101E00007F938F939F93AF93BF93EF93FF938091B3
:101E1000680182FD8BDD8091680183FF07C0DEDDF4
:101E20008AEF90E09093270180932601FF91EF9134
:101E3000BF91AF919F918F917F916F915F914F91E2
:101E40003F912F910F900FBE0F901F9018951F92EA
:101E50000F920FB60F9211242F933F934F935F93DE
:101E60006F937F938F939F93AF93BF93EF93FF9362
:101E7000E89881E08CBB8091680182FD57DD8091FC
:101E8000680183FDABDDB7DA8EEF90E09093270118
:101E900080932601FF91EF91BF91AF919F918F9118
:101EA0007F916F915F914F913F912F910F900FBE56
:101EB0000F901F9018951F920F920FB60F9211243A
:101EC0002F933F934F935F936F937F938F939F9342
:101ED000AF93BF93EF93FF9380918600909187001B
:101EE00090936301809362018091810090E489273F
:101EF00080938100809162019091630181159E4FD2
:101F0000B0F4B09B14C08091640190916501A091E0
:101F10006601B09167010196A11DB11D8093640116
:101F200090936501A0936601B0936701B09A8BDD31
:101F3000FF91EF91BF91AF919F918F917F916F91A1
:101F40005F914F913F912F910F900FBE0F901F9077
:101F500018951F921FB61F9211248F939F93AF93D2
:101F6000BF938091680182FF1BC0809164019091B2
:101F70006501A0916601B09167010196A11DB11D97
:101F80008093640190936501A0936601B09367010B
:101F9000BF91AF919F918F911F901FBE1F90189579
:101FA000A895F6CF1F920F920FB60F9211242F9380
:101FB0003F934F935F936F937F938F939F93AF93D1
:101FC000BF93EF93FF938091680183FD12C0A895A2
:101FD000FF91EF91BF91AF919F918F917F916F9101
:101FE0005F914F913F912F910F900FBE0F901F90D7
:101FF000189580915401811137C080915C019091B6
:102000005D01A0915E01B0915F010197A109B10945
:1020100080935C0190935D01A0935E01B0935F019A
:1020200080915C0190915D01A0915E01B0915F0192
:10203000892B8A2B8B2B09F057C080915A019091E4
:102040005B01909389008093880091E09093540104
:102050008091530181113BC080918000806C8093FE
:10206000800090935301B4CF809156019091570115
:10207000A0915801B0915901892B8A2B8B2B11F417
:10208000ADDCA6CF7EDD80915C0190915D01A091D9
:102090005E01B0915F01892B8A2B8B2B71F210921C
:1020A000540180915A0190915B0197FD1DC0809170
:1020B0005A0190915B01905890935B0180935A0173
:1020C00080E090E8909389008093880081CF809190
:1020D0008000806880938000809180008F7B809357
:1020E00080001092530174CF8FEF9FEFEBCFCF930F
:1020F000CFB7F894A89561E08FEF9FEF0E94B902E7
:102100008FE39CE90197F1F700C000009FEF26E7FD
:1021100081E0915020408040E1F700C000001DDCCC
:10212000909327018093260178948091680182FD25
:1021300015C080E090E00E9487020E94CC0281E0FE
:10214000C2D9CFBF8091260190912701019741F01C
:102150008091260190912701CF910895A895E5CF10
:102160008AE090E0F9CFCF93CFB7F894A89560E0DC
:102170008FEF9FEF0E94B9028FE39CE90197F1F77F
:1021800000C00000FEDC80915C0190915D01A09197
:102190005E01B0915F018093560190935701A09327
:1021A0005801B09359018091560190915701A09127
:1021B0005801B091590140915A0150915B01DC01E5
:1021C0009927882760E070E0842B952BA62BB72BEE
:1021D0008093560190935701A0935801B0935901F1
:1021E0008CDD90932701809326017894809168017B
:1021F00083FD24C080E090E00E9487028091560118
:1022000090915701A0915801B0915901892B8A2BC7
:102210008B2BB1F08091EB0080628093EB0081E02A
:1022200052D9CFBF8091260190912701019759F093
:102230008091260190912701CF910895A895D6CF3E
:102240000E94CC02ECCF8BE090E0F6CF1F93CF93AF
:10225000DF9300D00F92CDB7DEB78DE691E0FC01A1
:1022600001962091F100208321E085379207B9F78C
:1022700080916D0190916E019A3008F0FFC0E92FB6
:10228000F0E0EA5AF54E0C940D1A803879F0823855
:1022900009F0F4C0809171018093E9008091EB0016
:1022A00085FB882780F91092E90007C090916901A9
:1022B0009195927080916A01892B9091E800977FA7
:1022C0009093E8008093F1001092F1008091E80073
:1022D000982F9E7F9093E8008F7727C0811119C0B7
:1022E00080916F01813029F18091E80083FF0AC05D
:1022F0008091EB0080628093EB008091E800877F03
:102300008093E8000F900F900F90DF91CF911F9175
:102310000895823009F0B2C080916F01811581F07B
:102320001092E9008091E800877F8093E800D3D085
:10233000DBCF81E0933009F080E080936901F0CF3A
:10234000809171018770811579F28093E900209165
:10235000EB0020FFE5CF933031F48091EB008062F9
:102360008093EB00DDCF9091EB0090619093EB00B8
:1023700021E030E0A90102C0440F551F8A95E2F721
:102380004093EA001092EA008091EB008860E8CF69
:10239000811174C010916F018091E800877F809354
:1023A000E80099D08091E80080FF0BC0812F8F77E3
:1023B000811519F093E090936C0180688093E3009D
:1023C00093CF80916C018111EDCF8ECF80588230F8
:1023D00008F054C09E012D5F3F4FAE014F5F5F4F2D
:1023E0006091710180916F01909170010E94B0061F
:1023F000BC01892B09F478CF8091E800877F809316
:10240000E8002B8189819A8121110BC0BED1809176
:10241000E800982F9B7F9093E8008F778093E800E7
:1024200063CF213011F40DD2F2CF54D1F0CF8038E8
:1024300029F58091E800877F8093E80080916B0107
:102440008093F10043CF811119C090916F019230B8
:1024500008F04ACF8091E800877F8093E80090934E
:102460006B0139D080916B01811531F084E080934C
:102470006C010E94730138CF83E0F9CF0E94DC0029
:1024800033CF8093E900EBEEF0E0808181608083C0
:10249000EDEEF0E010826093EC0040838091EE005E
:1024A000881F8827881F08951092F40080E0809389
:1024B000E9001092F0001092E8009091ED009D7FED
:1024C0009093ED009091EB009E7F9093EB008F5FD7
:1024D000853069F7089580916D0187FF17C080915D
:1024E000E80082FF0AC08091E800982F9B7F9093BC
:1024F000E8008F778093E800089580916C01811146
:10250000EECF089580916C018115D9F38091E80098
:1025100080FFF8CF8091E800982F9E7FE8CF95E666
:102520008091EC008170811531F08091E80080FF8E
:1025300006C080E008952091E80022FD18C0809137
:102540006C01811589F08091EB0085FD0FC08091B1
:10255000E10082FFE5CF8091E1008B7F8093E10075
:102560009A95F1F683E0089582E0089581E0089558
:10257000EF92FF920F931F93CF938C017B01CFDFDC
:10258000C82F811589F08C2FCF911F910F91FF904B
:10259000EF900895F70109958130C9F4C4E0F3CFB5
:1025A0008091F100015011090115110561F380912D
:1025B000E80085FDF5CF8091E800982F9B7F9093F0
:1025C000E8008F778093E800E114F10419F7A7DFA2
:1025D000811569F3C82FD7CFDF92EF92FF920F9347
:1025E0001F93CF93DF93D82FD92E8B017A0197DFDA
:1025F000C82F8115C1F08C2FDF91CF911F910F91C2
:10260000FF90EF90DF900895F70109958130F1F484
:10261000C4E0F1CFED2FFD2D81918093F1000150A9
:102620001109DE2FDF2E0115110529F38091E80035
:1026300085FDF0CF8091E800982F9E7F9093E80071
:102640008F778093E800E114F104F1F668DF8115DB
:1026500069F3C82FD0CFDF92EF92FF920F931F93B1
:10266000CF93DF93D82FD92E8B017A0158DFC82F53
:102670008115C1F08C2FDF91CF911F910F91FF90A9
:10268000EF90DF900895F70109958130F1F4C4E0EF
:10269000F1CFED2FFD2D8091F100819301501109B3
:1026A000DE2FDF2E0115110529F38091E80085FD4D
:1026B000F0CF8091E800982F9B7F9093E8008F7770
:1026C0008093E800E114F104F1F629DF811569F344
:1026D000C82FD0CFAB012091730130917401261720
:1026E000370718F0672B69F09A0160E02115310572
:1026F00091F4611110C08091E80082FF3EC080E03B
:1027000008952091E800322F3E7F3093E8002F7724
:102710002093E800E9CF4091E80043FD34C04091A8
:10272000E80042FDE8CF40916C01411551F1409124
:10273000E80040FFDBCF4091F20050E02115310569
:1027400019F04830510578F061E04830510509F042
:1027500060E04091E800542F5E7F5093E8004F778F
:102760004093E800C3CFFC0181918093F100215098
:1027700031094F5F5F4FCF01E1CF80916C01811133
:10278000BACF82E0089581E00895AB0120917301F2
:10279000309174012617370718F0672B69F09A01FA
:1027A00060E02115310591F4611110C08091E800BD
:1027B00082FF3FC080E008952091E800322F3E7FE5
:1027C0003093E8002F772093E800E9CF4091E800AC
:1027D00043FD35C04091E80042FDE8CF40916C01D7
:1027E000411559F14091E80040FFDBCF4091F200E4
:1027F00050E0FC012115310519F04830510580F0F9
:10280000CF0161E04830510509F060E04091E800F7
:10281000542F5E7F5093E8004F774093E800C1CF7C
:1028200084918093F100215031094F5F5F4F3196C1
:10283000E1CF80916C018111B9CF82E0089581E0F0
:102840000895EF92FF920F931F93CF93DF939B0115
:10285000C0917301D0917401C617D70718F0672B88
:1028600091F0E90130E02097C1F4311116C0809158
:10287000E80082FF45C080E0DF91CF911F910F916A
:10288000FF90EF9008954091E800542F5E7F5093A1
:10289000E8004F774093E800E4CF2091E80023FD63
:1028A00035C02091E80022FDE2CF20916C01211576
:1028B00059F12091E80020FFD6CF0091F20010E0FE
:1028C000209719F00830110578F031E00830110533
:1028D00009F030E02091E800422F4E7F4093E8005D
:1028E0002F772093E800BFCF7C012FEFE21AF20A86
:1028F000A9D58093F10021970F5F1F4FC701E0CF4B
:1029000080916C018111B3CF82E0B6CF81E0B4CF6A
:1029100066D068D010926C0110926B011092690120
:1029200010926A0184E089BD89B5826089BD09B4CD
:1029300000FEFDCF8091D800982F9F779093D8000C
:1029400080688093D800809163008E7F80936300BD
:102950008091D8008F7D8093D8008091E0008E7F99
:102960008093E0008091E1008E7F8093E100809170
:10297000E20081608093E2008091E100877F809394
:10298000E1008091E20088608093E2000895C0DF5A
:1029900081E08093750178940895BADFE0EEF0E06D
:1029A000808181608083E8EDF0E080818F77808393
:1029B00019BC1092750108950895CF9380916C0110
:1029C000811559F0C091E900C7701092E90080911B
:1029D000E80083FD3BDCC093E900CF91089510929D
:1029E000E20008951092E10008951F920F920FB631
:1029F0000F9211242F933F934F935F936F937F9385
:102A00008F939F93AF93BF93EF93FF938091E100D8
:102A100080FF1DC08091E20080FF19C08091E1001D
:102A20008E7F8093E1008091E2008E7F8093E200B0
:102A30008091E20080618093E2008091D800806202
:102A40008093D80019BC10926C010E94DB00809129
:102A5000E10084FF29C08091E20084FF25C084E06A
:102A600089BD89B5826089BD89B581708115E1F321
:102A70009091D8009F7D9093D8009091E1009F7E27
:102A80009093E1009091E2009F7E9093E2009091FC
:102A9000E20091609093E20090916B01911184E0CB
:102AA00080936C010E94D3008091E10083FF28C0D5
:102AB0008091E20083FF24C08091E100877F8093B2
:102AC000E10082E080936C0110926B018091E10043
:102AD0008E7F8093E1008091E2008E7F8093E20000
:102AE0008091E20080618093E200DEDC42E060E001
:102AF00080E0C7DC8091F00088608093F0005CDFAC
:102B00008091E10082FF0AC08091E20082FF06C04E
:102B10008091E1008B7F8093E1004EDFFF91EF9188
:102B2000BF91AF919F918F917F916F915F914F91E5
:102B30003F912F910F900FBE0F901F9018951F92ED
:102B40000F920FB60F9211240F931F932F933F9361
:102B50004F935F936F937F938F939F93AF93BF93A5
:102B6000CF93EF93FF9309EE10E0F801C081C77097
:102B700024DFE8EEF0E08081877F8083F801C08366
:102B8000FF91EF91CF91BF91AF919F918F917F91E5
:102B90006F915F914F913F912F911F910F910F90E6
:102BA0000FBE0F901F9018950E942407982F83FB4B
:102BB000882780F921E0822790FF826097FF846058
:102BC00094FF806108951F93CF93DF93C82FD62F72
:102BD00019EC0E9424078C238D1761F00E942407B2
:102BE000982F9C2381E09D1301C080E0DF91CF915D
:102BF0001F9108951A9591F385E38A95F1F70000E6
:102C0000E8CFCF93DF93D62FE82FF0E0EA5BFE4FBB
:102C1000C4916111DC2F0E9424078C238D1721F0B1
:102C200081E0DF91CF9108950E943F018115C9F3A2
:102C300085E38A95F1F70000EECF0F931F93CF93B2
:102C4000C82F47988BB1867F8BB95E9A2FEF81EEA4
:102C500094E0215080409040E1F700C000005E9871
:102C60000CE41DE147988BB1867B8BB987EC90E033
:102C70000197F1F700C000004A9910C087E592E083
:102C80000197F1F700C000000E943F01811539F162
:102C90000150104039F7C111E5CF21C087EC90E019
:102CA0000197F1F700C000004A9905C08FE891E054
:102CB0000197F1F7E7CF479A8FE891E00197F1F795
:102CC00000C000004A9B02C04798DECF47988FE8BB
:102CD00091E00197F1F700C000004A9BD5CFCF915A
:102CE0001F910F910895DF92EF92FF920F931F9320
:102CF000CF93DF938C0161E00E94B902E12CF12CAB
:102D0000C1E5D3EC499B52C0D0913A01D11154C0D6
:102D10005B9889EC499B03C08A9509F05EC0499B8A
:102D20000BC081E080933A015B9A87E191E00197C3
:102D3000F1F700C000005B98F89461E081E043DFA8
:102D4000C82F811509F44EC088E0D82E60E081E0DC
:102D50003ADFC82F811539F0D6954A99D06861E0DD
:102D600081E031DFC82FDA9411F0C111EFCF7894F0
:102D7000C11579F05B9A8D2F0E940003811114C058
:102D80009FEFE91AF90A87EC90E00197F1F700C08C
:102D90000000A895E016F10639F1C11539F18091CE
:102DA0003A01811509F4ACCF870122C0219721F0A7
:102DB0000E943F0181110CC00E94CC0280E090E093
:102DC000DF91CF911F910F91FF90EF90DF900895C9
:102DD0008AE68A95F1F700C095CF9AE09A95F1F7C7
:102DE00000C098CFD0E0C3CFC11102C000E010E016
:102DF0000E94CC02C801E4CFCF92DF92EF92FF9203
:102E00000F931F93CF93DF930F92CDB7DEB78C0153
:102E1000F62E10923A01009751F060E00E94B9023C
:102E200060E080ECD0DE81110EC00E94CC0280E018
:102E300090E00F90DF91CF911F910F91FF90EF9055
:102E4000DF90CF9008952F2D2270E22E5B982111F4
:102E5000479A589A8AE08A95F1F700C068E088E0BE
:102E6000B2DE811103C047985898DFCF95ED9A954F
:102E7000F1F7000068014A9959C058984A9B52C01E
:102E8000E1E0CE16D10441F4E11006C068E088E02C
:102E90009ADE60E088E097DE589ACE0101960E94A3
:102EA0003A03811143C0998188E0EBE2F1E0319768
:102EB000F1F700C0000090FD05C05B9AFAE0FA95BA
:102EC000F1F700C058982AE62A95F1F700C0589A01
:102ED0005B9896958A9549F768E088E074DE8115DD
:102EE00029F181E0C81AD108EFE8F1E03197F1F754
:102EF00000C00000A895C114D10409F0BCCF0E9405
:102F0000CC02F0FE21C05B9A479825E02A95F1F7A4
:102F1000000058988AE08A95F1F700C049990FC0DF
:102F2000C80187CF0E943F018111A8CF0E94CC0227
:102F3000FAE6FA95F1F700C04798589878CF0E94C2
:102F40003F018111EBCF73CF4798EACF61110FC0DA
:102F5000E82FF0E0EA5BFE4FE491E7FF02C0479AFA
:102F6000EF77E11589F18BB18E2B8BB90895E62FA0
:102F7000F0E0EA5BFE4F81110CC0E491E7FF02C074
:102F80004798EF77E11501F18BB1E095E823EBB9B4
:102F900008956491962FE82FF0E0EA5BFE4FE491EC
:102FA000E7FF02C0479AEF77E11519F08BB18E2B3E
:102FB0008BB967FF03C04798962F9F77911521F033
:102FC0008BB1909598239BB9089547988BB1867BD8
:102FD0008BB985E38A95F1F7000088E291E00895C6
:102FE000CF93DF93C82FD8E0C7FF1DC05B9A8AE05C
:102FF0008A95F1F700C058988AE08A95F1F700C0E9
:10300000499913C0C7FF18C05B98499B17C0589ACD
:103010005B988AE08A95F1F700C04A9914C0CC0FFA
:10302000DA9511F706C05B98E2CF0E943F0181114B
:10303000E7CFDF91CF9108955B9AE7CF0E943F01E0
:103040008111E3CFF6CF0E943F018111E6CFF1CF8E
:103050000F931F93CF93DF9318E0D0E04A9B27C0D4
:1030600058988AE08A95F1F700C0C9B1C695C17039
:1030700081E0C8275B9A01E089B18695817080273D
:10308000C817D9F05B988AE08A95F1F700C04A9991
:1030900019C0D695C795CC27C795DC2B589A1A9599
:1030A000E9F68D2FDF91CF911F910F9108950E9426
:1030B0003F018111D3CFDFEFF4CF0E943F01811197
:1030C000DBCFF9CF0E943F018111E1CFF4CFCF9345
:1030D000DF93C82FD4E0C0FF1CC05B9A8AE08A95BA
:1030E000F1F700C04798499B16C0C1FF1BC05B9A0F
:1030F0008AE08A95F1F700C0C695C695479A499926
:1031000013C0DA9541F75B988AE08A95F1F700C021
:1031100006C05B98E3CF0E943F018111E4CFDF91AD
:10312000CF9108955B98E4CF0E943F018111E7CFD2
:10313000F6CF1F93CF93DF9314E0C0E0499B28C0E4
:103140008AE08A95F1F700C0D9B14798499926C01D
:103150008AE08A95F1F700C0C69581E0D2FBDD27B1
:10316000D0F9D827D795DD27D795DC2BD695C9B1CF
:10317000C2FBCC27C0F9C827C795CC27C795CD2B54
:10318000479A1A95D9F68C2FDF91CF911F91089508
:103190000E943F018111D2CFCFEFF5CF0E943F01B6
:1031A0008111D4CFF9CFCF93DF93EC014A9915C0A9
:1031B00088819FEF94B985B982E08A95F1F700C0C4
:1031C00058984A9B11C089819FEF94B985B982E0D4
:1031D0008A95F1F700C0589A04C00E943F018111FE
:1031E000E5CFDF91CF9108950E943F018111E9CF92
:1031F000F8CFCF93DF93EC014A990DC014B815B8FE
:1032000083B1888358984A9B0DC014B815B883B110
:103210008983589A04C00E943F018111EDCFDF914C
:10322000CF9108950E943F018111EDCFF8CF9FEF1C
:1032300094B985B982E08A95F1F700C058984A9B05
:1032400008C0589A4A9B09C00E943F018111FACFD9
:1032500008950E943F018111F2CF0895CF935898AD
:103260004A9B0BC014B815B8C3B1589A4A9B0AC000
:103270000E943F018111FACF04C00E943F018111D9
:10328000EFCFCFEF8C2FCF910895479A8BB1867FE8
:103290008BB98AE18A95F1F700C04A9BFECF95E091
:1032A0009A95F1F7000014B815B883B147984A9978
:1032B000FECF9AE19A95F1F700C00895FC0191E0E4
:1032C00089B182FB882780F989276813F9CF14B860
:1032D00015B883B1808380E00895479A9BB1967FAB
:1032E0009BB99AE19A95F1F700C04A9BFECF9FEFF8
:1032F00094B985B985E08A95F1F70000479895E380
:103300009A95F1F700004A99FECF14B815B883B129
:10331000089521E099B192FB992790F992276913BA
:10332000F9CF9FEF94B985B980E00895479A8BB1A2
:10333000867E8BB925E02A95F1F7000098E080E0C1
:103340004D99FECF4D9BFECF22E02A95F1F729B192
:1033500022FB222720F9880F822B9A9589F747981C
:10336000499BFECF0895479A9BB1967E9BB99AE1FF
:103370009A95F1F700C04999FECF28E0982F9295D1
:103380009F709095987090619BB9880F00C000C0A5
:1033900000005C9895E09A95F1F72A9579F785E019
:1033A0008A95F1F700004798499BFECF0895282F92
:1033B00044E650E091E089B18695817089276813D1
:1033C00013C088E0922F92959F70909598709061AD
:1033D0009BB9220F00C000C000005C9895E09A9550
:1033E000F1F78A9579F708954150504021F78FEF12
:1033F0000895AA1BBB1B51E107C0AA1FBB1FA6173C
:10340000B70710F0A61BB70B881F991F5A95A9F78D
:1034100080959095BC01CD010895EE0FFF1F05909A
:10342000F491E02D0994FB01DC014150504048F03B
:1034300005900D920020C9F701C01D9241505040E7
:10344000E0F70895F999FECF92BD81BDF89A9927CA
:1034500080B50895F894FFCFC703CC0311040C0482
:10346000940315041F0427042C046A045305510413
:1034700051045104510451045104510451045104A4
:103480005104510451045104380641066F06770671
:103490005606450660068206880691069706AE0621
:1034A000A006A206A406A606A806AC0645116E1143
:1034B0003E126E113E12C811E6113E12171223126F
:1034C0000304000F08033000300030000000B10892
:1034D0001C09C007960785079807080D0000000023
:1034E00000000000000001001D16FC1673160116F6
:0834F000D415A6170055AAFF30
:00000001FF
